:100000000C9434000C9449000C9449000C94490061
:100010000C9449000C9449000C9449000C9449003C
:100020000C9449000C9449000C9449000C9449002C
:100030000C9449000C9449000C9449000C9449001C
:100040000C9449000C9449000C9449000C9449000C
:100050000C9449000C9449000C9449000C944900FC
:100060000C9449000C94490011241FBECFEFD8E036
:10007000DEBFCDBF11E0A0E0B1E0ECE9FCE002C0E2
:1000800005900D92AC34B107D9F70E94E5030C94AA
:100090004C060C94000095B19F70282F207F922B66
:1000A00095B92898299A32E03A95F1F700C0299835
:1000B000EFE8F1E03197F1F700C0000025B12F70B3
:1000C000F0E18F9FC0011124822B85B9299A32E07B
:1000D0003A95F1F700C029988FE99FE00197F1F771
:1000E00000C00000089595B19F70282F207F922BAB
:1000F00095B9289A299A32E03A95F1F700C02998E3
:10010000EFE8F1E03197F1F700C0000025B12F7062
:10011000F0E18F9FC0011124822B85B9299A32E02A
:100120003A95F1F700C029988FE99FE00197F1F720
:1001300000C0000008958FEF84B98FE39CE9019718
:10014000F1F700C0000082E00E944B0088E20E94AC
:100150004B008CE00E944B0086E00E944B0081E047
:100160000E944B008FE99FE00197F1F700C000006B
:100170000895CF93DF93EC018991882319F00E94B1
:100180007300FACFDF91CF910895CF93DF93EA0107
:10019000811106C060316CF4862F8F70806807C0B3
:1001A000813039F460312CF4862F8F70806C0E947E
:1001B0004B00CE01DF91CF910C94B900811106C0A4
:1001C00060316CF4862F8F70806807C0813039F4FD
:1001D00060312CF4862F8F70806C0C944B00089546
:1001E00081E00E944B008FE99FE00197F1F700C08A
:1001F000000080E80C944B0017B887E880937A00E1
:1002000080E480937C00089590917C008F70982BFF
:1002100090937C0080917A00806480937A00809132
:100220007A0084FFFCCF8AE18A95F1F700C0209123
:1002300078008091790090E0982F8827820F911D97
:1002400008950F931F93CF93DF938C01DB01F90186
:10025000EC0188819981EC01288139818D919C91F3
:100260001197EC0188819981B901681B790B77FF9F
:1002700060C0EA01E881F98131832083FA01C081FD
:10028000D181ED91FC9111972881398180819181F3
:10029000281739070CF02AC1EFE1FEE43197F1F796
:1002A00000C00000589A8FE19EE40197F1F700C06A
:1002B00000008BB183608BB9CFE1DEE42197F1F7C9
:1002C00000C000008BB187608BB9EFE1FEE431978D
:1002D000F1F700C000008BB18F608BB98FE19EE415
:1002E0000197F1F700C000005898CFE1DEE42197B4
:1002F000F1F700C000005998EFE1FEE43197F1F703
:1003000000C000005A988FE19EE40197F1F700C009
:1003100000005B98CFE1DEE42197F1F700C0000018
:10032000EA01E881F981808191810196918380833E
:10033000A5CF683171050CF46BC080819181E80113
:10034000488159812D913C911197EA014881598149
:10035000E90128813981421B530B57FF03C0519596
:100360004195510955954795EC01888199818417EC
:1003700095070CF0BBC08FE19EE40197F1F700C038
:1003800000005B9ACFE1DEE42197F1F700C00000A6
:100390008BB18C608BB98FE19EE40197F1F700C0BF
:1003A00000008BB18E608BB9CFE1DEE42197F1F7CD
:1003B00000C000008BB18F608BB98FE19EE4019784
:1003C000F1F700C000005B98CFE1DEE42197F1F780
:1003D00000C000005A988FE19EE40197F1F700C039
:1003E00000005998CFE1DEE42197F1F700C000004A
:1003F00058988FE19EE40197F1F700C0000020813A
:100400003181E9018881998101969983888395CF0B
:1004100080819181EC011982188280819181E801AB
:10042000488159812D913C911197EA014881598168
:10043000E90128813981421B530B57FF03C05195B5
:1004400041955109EC0188819981841795070CF039
:100450004DC08FE19EE40197F1F700C000005B9A68
:10046000CFE1DEE42197F1F700C000008BB18C6092
:100470008BB98FE19EE40197F1F700C000008BB1CA
:100480008E608BB9CFE1DEE42197F1F700C0000068
:100490008BB18F608BB98FE19EE40197F1F700C0BB
:1004A00000005B98CFE1DEE42197F1F700C0000087
:1004B0005A988FE19EE40197F1F700C00000599827
:1004C000CFE1DEE42197F1F700C0000058988FE1FA
:1004D0009EE40197F1F700C0000020813181E9011D
:1004E0008881998101969983888397CFDF91CF91F5
:1004F0001F910F910895569A94B5936A94BD95B53E
:10050000936095BD87BD0895239AE0EBF0E090815C
:10051000936A9083E1EBF0E0908193609083809305
:10052000B300089520E030E04CE753E40E947404E7
:1005300020E030E048EC52E40E94AA050895CF92F2
:10054000DF92EF92FF920F931F93CF93DF93EB0114
:10055000DC01ED91FC91208131818EE090E0821BE5
:10056000930B2AE2289F8001299F100D1124C801B6
:100570000E948402B801110F880B990B0E941E057E
:1005800020E030E04CE753E40E94740420E030E0C7
:1005900048EC52E40E94AA056B017C0180ED0E94A8
:1005A0004B0080EC0E944B0084E391E00E94B90074
:1005B000C701B6010E94E604DC01CB014AE0BE019E
:1005C0000E941706CE010E94B9008AEC0E944B00DF
:1005D000FE0101900020E9F7CF0102978C179D07DB
:1005E00051F4CE010E94B9008BEC0E944B0088E1CF
:1005F00091E00E94B900FE0101900020E9F7CF01CF
:1006000003978C179D0751F4CE010E94B9008CEC22
:100610000E944B0089E191E00E94B900FE01019027
:100620000020E9F7CF0104978C179D0731F4CE0124
:100630000E94B9008DEC0E944B008FE391E0DF91A6
:10064000CF911F910F91FF90EF90DF90CF900C947E
:10065000B900CF93DF93CDB7DEB72A970FB6F894E2
:10066000DEBF0FBECDBF9A8389837C836B835E839D
:100670004D8338872F83BA86A98685E1D82EEB81F2
:10068000FC8180819181E981FA81918380830E943C
:10069000FC00AB80BC8080E00E940401D5018D93FA
:1006A0009C930E94FC00A984BA8482E00E94040109
:1006B000F50191838083B801CE0109960E949F02C3
:1006C000EB81FC8180819181D7012D913C91821B2E
:1006D000930B9183808397FD6AC0D89EB001D99E09
:1006E000700D1124072E000C880B990B0E941E051B
:1006F00020E030E04CE753E40E94740420E030E056
:1007000048EC52E40E94AA050E94E6044B015C01F9
:10071000CB010E947B0280E80E944B0081E491E0C3
:100720000E94B9004AE0B801C4010E941706C8013E
:100730000E94B9008AE80E944B00F8010190002055
:10074000E9F7CF0102978017910751F4C8010E9481
:10075000B9008BE80E944B0088E191E00E94B9004B
:10076000F80101900020E9F7CF0103978017910766
:1007700051F4C8010E94B9008CE80E944B0089E145
:1007800091E00E94B900F80101900020E9F7CF0143
:1007900004978017910731F4C8010E94B9008DE8D1
:1007A0000E944B008FE391E00E94B90068CF9E0148
:1007B000295F3F4FAE014B5F5F4FBE016D5F7F4FC3
:1007C000CE0101960E9421015ACFAF92BF92CF92E3
:1007D000DF92EF92FF920F931F93CF93DF93CDB7EA
:1007E000DEB763970FB6F894DEBF0FBECDBF8AB1F8
:1007F0008F608AB93E9A0E949B004C9B21C0359B1A
:100800000AC0469A40E051E060E080E00E94C500E6
:1008100040E151E009C0469840E051E060E080E0EE
:100820000E94C5004AE251E060E081E00E94C500FC
:1008300084ED0E944B008BE191E00E94B900DFCF74
:100840001B8A1A8A198A188A1D861C861B861A8694
:100850000E94FC000E949B000E94F00084ED0E9418
:100860004B008BE191E00E94B9000E94FC0080E007
:100870000E940401998788870E94FC0081E00E9401
:1008800004019F838E8328853985821B930B9B8B64
:100890008A8B9F878E87CE010A965C0102976C0136
:1008A00002977C018E010F5F1F4F9E01245F3F4F17
:1008B000AE01405F5F4FBE016E5E7F4F08960E94A3
:1008C000290380E090E063960FB6F894DEBF0FBE78
:1008D000CDBFDF91CF911F910F91FF90EF90DF90EF
:1008E000CF90BF90AF9008950E9488040C9470053B
:1008F0000E94690558F00E94620540F029F45F3FAC
:1009000029F00C94590551110C94A4050C945F0521
:100910000E94810568F39923B1F3552391F3951B48
:10092000550BBB27AA2762177307840738F09F5F10
:100930005F4F220F331F441FAA1FA9F335D00E2E7D
:100940003AF0E0E832D091505040E695001CCAF7EA
:100950002BD0FE2F29D0660F771F881FBB1F2617AD
:1009600037074807AB07B0E809F0BB0B802DBF0184
:10097000FF2793585F4F3AF09E3F510578F00C9453
:1009800059050C94A4055F3FE4F3983ED4F3869593
:1009900077956795B795F7959F5FC9F7880F911D74
:1009A0009695879597F90895E1E0660F771F881F60
:1009B000BB1F621773078407BA0720F0621B730B13
:1009C000840BBA0BEE1F88F7E09508950E94ED04A2
:1009D0006894B1110C94A40508950E94890588F0CB
:1009E0009F5798F0B92F9927B751B0F0E1F0660FF3
:1009F000771F881F991F1AF0BA95C9F714C0B13034
:100A000091F00E94A305B1E008950C94A305672F0F
:100A1000782F8827B85F39F0B93FCCF38695779562
:100A20006795B395D9F73EF490958095709561954B
:100A30007F4F8F4F9F4F0895E89409C097FB3EF476
:100A400090958095709561957F4F8F4F9F4F99231B
:100A5000A9F0F92F96E9BB279395F6958795779599
:100A60006795B795F111F8CFFAF4BB0F11F460FF59
:100A70001BC06F5F7F4F8F4F9F4F16C0882311F0B1
:100A800096E911C0772321F09EE8872F762F05C0C5
:100A9000662371F096E8862F70E060E02AF09A9560
:100AA000660F771F881FDAF7880F9695879597F955
:100AB000089597F99F6780E870E060E008959FEFE0
:100AC00080EC089500240A941616170618060906E5
:100AD000089500240A9412161306140605060895B4
:100AE000092E0394000C11F4882352F0BB0F40F43C
:100AF000BF2B11F460FF04C06F5F7F4F8F4F9F4F7C
:100B0000089557FD9058440F551F59F05F3F71F0FD
:100B10004795880F97FB991F61F09F3F79F0879564
:100B20000895121613061406551FF2CF4695F1DFED
:100B300008C0161617061806991FF1CF869571057D
:100B4000610508940895E894BB2766277727CB01B1
:100B500097F908950E94BD050C9470050E946205E6
:100B600038F00E94690520F0952311F00C94590586
:100B70000C945F0511240C94A4050E94810570F368
:100B8000959FC1F3950F50E0551F629FF001729F32
:100B9000BB27F00DB11D639FAA27F00DB11DAA1F41
:100BA000649F6627B00DA11D661F829F2227B00D8E
:100BB000A11D621F739FB00DA11D621F839FA00D19
:100BC000611D221F749F3327A00D611D231F849F69
:100BD000600D211D822F762F6A2F11249F575040C0
:100BE0009AF0F1F088234AF0EE0FFF1FBB1F661F3B
:100BF000771F881F91505040A9F79E3F510580F004
:100C00000C9459050C94A4055F3FE4F3983ED4F38B
:100C1000869577956795B795F795E7959F5FC1F7A7
:100C2000FE2B880F911D9695879597F90895BB2700
:100C30004A3031F4992322F4BDE2909581959F4F7B
:100C40000C942306BB27FB015527AA27880F991F61
:100C5000AA1FA41710F0A41B83955051B9F7A05DEB
:100C6000AA3308F0A95DA193009779F7B111B19368
:100C70001192CB010C943C06DC01FC01672F7191B1
:100C80007723E1F7329704C07C916D937083629172
:0C0C9000AE17BF07C8F30895F894FFCF1B
:100C9C0020427572676C617220416C61726D20002C
:100CAC0020532E4F2E53202020200020412E422E48
:100CBC00432E4C2E412E442E5300205365637572E7
:100CCC006564200046414E20697320617420002524
:0C0CDC00004C4544206973206174200026
:00000001FF
